{
  "contractName": "WrappedEther",
  "abi": [
    {
      "inputs": [],
      "stateMutability": "nonpayable",
      "type": "constructor"
    },
    {
      "anonymous": false,
      "inputs": [
        {
          "indexed": true,
          "internalType": "address",
          "name": "owner",
          "type": "address"
        },
        {
          "indexed": true,
          "internalType": "address",
          "name": "spender",
          "type": "address"
        },
        {
          "indexed": false,
          "internalType": "uint256",
          "name": "value",
          "type": "uint256"
        }
      ],
      "name": "Approval",
      "type": "event"
    },
    {
      "anonymous": false,
      "inputs": [
        {
          "indexed": true,
          "internalType": "address",
          "name": "from",
          "type": "address"
        },
        {
          "indexed": true,
          "internalType": "address",
          "name": "to",
          "type": "address"
        },
        {
          "indexed": false,
          "internalType": "uint256",
          "name": "value",
          "type": "uint256"
        }
      ],
      "name": "Transfer",
      "type": "event"
    },
    {
      "inputs": [
        {
          "internalType": "address",
          "name": "owner",
          "type": "address"
        },
        {
          "internalType": "address",
          "name": "spender",
          "type": "address"
        }
      ],
      "name": "allowance",
      "outputs": [
        {
          "internalType": "uint256",
          "name": "",
          "type": "uint256"
        }
      ],
      "stateMutability": "view",
      "type": "function",
      "constant": true
    },
    {
      "inputs": [
        {
          "internalType": "address",
          "name": "spender",
          "type": "address"
        },
        {
          "internalType": "uint256",
          "name": "amount",
          "type": "uint256"
        }
      ],
      "name": "approve",
      "outputs": [
        {
          "internalType": "bool",
          "name": "",
          "type": "bool"
        }
      ],
      "stateMutability": "nonpayable",
      "type": "function"
    },
    {
      "inputs": [
        {
          "internalType": "address",
          "name": "account",
          "type": "address"
        }
      ],
      "name": "balanceOf",
      "outputs": [
        {
          "internalType": "uint256",
          "name": "",
          "type": "uint256"
        }
      ],
      "stateMutability": "view",
      "type": "function",
      "constant": true
    },
    {
      "inputs": [],
      "name": "decimals",
      "outputs": [
        {
          "internalType": "uint8",
          "name": "",
          "type": "uint8"
        }
      ],
      "stateMutability": "view",
      "type": "function",
      "constant": true
    },
    {
      "inputs": [
        {
          "internalType": "address",
          "name": "spender",
          "type": "address"
        },
        {
          "internalType": "uint256",
          "name": "subtractedValue",
          "type": "uint256"
        }
      ],
      "name": "decreaseAllowance",
      "outputs": [
        {
          "internalType": "bool",
          "name": "",
          "type": "bool"
        }
      ],
      "stateMutability": "nonpayable",
      "type": "function"
    },
    {
      "inputs": [
        {
          "internalType": "address",
          "name": "spender",
          "type": "address"
        },
        {
          "internalType": "uint256",
          "name": "addedValue",
          "type": "uint256"
        }
      ],
      "name": "increaseAllowance",
      "outputs": [
        {
          "internalType": "bool",
          "name": "",
          "type": "bool"
        }
      ],
      "stateMutability": "nonpayable",
      "type": "function"
    },
    {
      "inputs": [],
      "name": "name",
      "outputs": [
        {
          "internalType": "string",
          "name": "",
          "type": "string"
        }
      ],
      "stateMutability": "view",
      "type": "function",
      "constant": true
    },
    {
      "inputs": [],
      "name": "symbol",
      "outputs": [
        {
          "internalType": "string",
          "name": "",
          "type": "string"
        }
      ],
      "stateMutability": "view",
      "type": "function",
      "constant": true
    },
    {
      "inputs": [],
      "name": "totalSupply",
      "outputs": [
        {
          "internalType": "uint256",
          "name": "",
          "type": "uint256"
        }
      ],
      "stateMutability": "view",
      "type": "function",
      "constant": true
    },
    {
      "inputs": [],
      "name": "totalSupplyWether",
      "outputs": [
        {
          "internalType": "uint256",
          "name": "",
          "type": "uint256"
        }
      ],
      "stateMutability": "view",
      "type": "function",
      "constant": true
    },
    {
      "inputs": [
        {
          "internalType": "address",
          "name": "recipient",
          "type": "address"
        },
        {
          "internalType": "uint256",
          "name": "amount",
          "type": "uint256"
        }
      ],
      "name": "transfer",
      "outputs": [
        {
          "internalType": "bool",
          "name": "",
          "type": "bool"
        }
      ],
      "stateMutability": "nonpayable",
      "type": "function"
    },
    {
      "inputs": [
        {
          "internalType": "address",
          "name": "sender",
          "type": "address"
        },
        {
          "internalType": "address",
          "name": "recipient",
          "type": "address"
        },
        {
          "internalType": "uint256",
          "name": "amount",
          "type": "uint256"
        }
      ],
      "name": "transferFrom",
      "outputs": [
        {
          "internalType": "bool",
          "name": "",
          "type": "bool"
        }
      ],
      "stateMutability": "nonpayable",
      "type": "function"
    },
    {
      "inputs": [],
      "name": "mint",
      "outputs": [],
      "stateMutability": "payable",
      "type": "function",
      "payable": true
    },
    {
      "inputs": [
        {
          "internalType": "uint256",
          "name": "amount",
          "type": "uint256"
        }
      ],
      "name": "withdraw",
      "outputs": [],
      "stateMutability": "nonpayable",
      "type": "function"
    }
  ],
  "bytecode": "0x608060405260006005553480156200001657600080fd5b506040518060400160405280600d81526020017f57524150504544204554484552000000000000000000000000000000000000008152506040518060400160405280600481526020017f574554480000000000000000000000000000000000000000000000000000000081525081600390805190602001906200009b929190620000bd565b508060049080519060200190620000b4929190620000bd565b505050620001d2565b828054620000cb906200016d565b90600052602060002090601f016020900481019282620000ef57600085556200013b565b82601f106200010a57805160ff19168380011785556200013b565b828001600101855582156200013b579182015b828111156200013a5782518255916020019190600101906200011d565b5b5090506200014a91906200014e565b5090565b5b80821115620001695760008160009055506001016200014f565b5090565b600060028204905060018216806200018657607f821691505b602082108114156200019d576200019c620001a3565b5b50919050565b7f4e487b7100000000000000000000000000000000000000000000000000000000600052602260045260246000fd5b61184a80620001e26000396000f3fe6080604052600436106100dd5760003560e01c8063395093511161007f57806395d89b411161005957806395d89b41146102b5578063a457c2d7146102e0578063a9059cbb1461031d578063dd62ed3e1461035a576100dd565b8063395093511461021057806370a082311461024d578063714d7ba41461028a576100dd565b806318160ddd116100bb57806318160ddd1461015457806323b872dd1461017f5780632e1a7d4d146101bc578063313ce567146101e5576100dd565b806306fdde03146100e2578063095ea7b31461010d5780631249c58b1461014a575b600080fd5b3480156100ee57600080fd5b506100f7610397565b60405161010491906111fe565b60405180910390f35b34801561011957600080fd5b50610134600480360381019061012f9190610fdd565b610429565b60405161014191906111e3565b60405180910390f35b610152610447565b005b34801561016057600080fd5b5061016961046c565b6040516101769190611340565b60405180910390f35b34801561018b57600080fd5b506101a660048036038101906101a19190610f8e565b610476565b6040516101b391906111e3565b60405180910390f35b3480156101c857600080fd5b506101e360048036038101906101de9190611019565b61056e565b005b3480156101f157600080fd5b506101fa61061c565b604051610207919061135b565b60405180910390f35b34801561021c57600080fd5b5061023760048036038101906102329190610fdd565b610625565b60405161024491906111e3565b60405180910390f35b34801561025957600080fd5b50610274600480360381019061026f9190610f29565b6106d1565b6040516102819190611340565b60405180910390f35b34801561029657600080fd5b5061029f610719565b6040516102ac9190611340565b60405180910390f35b3480156102c157600080fd5b506102ca61071f565b6040516102d791906111fe565b60405180910390f35b3480156102ec57600080fd5b5061030760048036038101906103029190610fdd565b6107b1565b60405161031491906111e3565b60405180910390f35b34801561032957600080fd5b50610344600480360381019061033f9190610fdd565b61089c565b60405161035191906111e3565b60405180910390f35b34801561036657600080fd5b50610381600480360381019061037c9190610f52565b6108ba565b60405161038e9190611340565b60405180910390f35b6060600380546103a6906114a4565b80601f01602080910402602001604051908101604052809291908181526020018280546103d2906114a4565b801561041f5780601f106103f45761010080835404028352916020019161041f565b820191906000526020600020905b81548152906001019060200180831161040257829003601f168201915b5050505050905090565b600061043d610436610941565b8484610949565b6001905092915050565b6104513334610b14565b34600560008282546104639190611392565b92505081905550565b6000600254905090565b6000610483848484610c74565b6000600160008673ffffffffffffffffffffffffffffffffffffffff1673ffffffffffffffffffffffffffffffffffffffff16815260200190815260200160002060006104ce610941565b73ffffffffffffffffffffffffffffffffffffffff1673ffffffffffffffffffffffffffffffffffffffff1681526020019081526020016000205490508281101561054e576040517f08c379a000000000000000000000000000000000000000000000000000000000815260040161054590611280565b60405180910390fd5b6105628561055a610941565b858403610949565b60019150509392505050565b610577336106d1565b8111156105b9576040517f08c379a00000000000000000000000000000000000000000000000000000000081526004016105b0906112e0565b60405180910390fd5b3373ffffffffffffffffffffffffffffffffffffffff166108fc829081150290604051600060405180830381858888f193505050501580156105ff573d6000803e3d6000fd5b50806005600082825461061291906113e8565b9250508190555050565b60006012905090565b60006106c7610632610941565b848460016000610640610941565b73ffffffffffffffffffffffffffffffffffffffff1673ffffffffffffffffffffffffffffffffffffffff16815260200190815260200160002060008873ffffffffffffffffffffffffffffffffffffffff1673ffffffffffffffffffffffffffffffffffffffff168152602001908152602001600020546106c29190611392565b610949565b6001905092915050565b60008060008373ffffffffffffffffffffffffffffffffffffffff1673ffffffffffffffffffffffffffffffffffffffff168152602001908152602001600020549050919050565b60055481565b60606004805461072e906114a4565b80601f016020809104026020016040519081016040528092919081815260200182805461075a906114a4565b80156107a75780601f1061077c576101008083540402835291602001916107a7565b820191906000526020600020905b81548152906001019060200180831161078a57829003601f168201915b5050505050905090565b600080600160006107c0610941565b73ffffffffffffffffffffffffffffffffffffffff1673ffffffffffffffffffffffffffffffffffffffff16815260200190815260200160002060008573ffffffffffffffffffffffffffffffffffffffff1673ffffffffffffffffffffffffffffffffffffffff1681526020019081526020016000205490508281101561087d576040517f08c379a000000000000000000000000000000000000000000000000000000000815260040161087490611300565b60405180910390fd5b610891610888610941565b85858403610949565b600191505092915050565b60006108b06108a9610941565b8484610c74565b6001905092915050565b6000600160008473ffffffffffffffffffffffffffffffffffffffff1673ffffffffffffffffffffffffffffffffffffffff16815260200190815260200160002060008373ffffffffffffffffffffffffffffffffffffffff1673ffffffffffffffffffffffffffffffffffffffff16815260200190815260200160002054905092915050565b600033905090565b600073ffffffffffffffffffffffffffffffffffffffff168373ffffffffffffffffffffffffffffffffffffffff1614156109b9576040517f08c379a00000000000000000000000000000000000000000000000000000000081526004016109b0906112c0565b60405180910390fd5b600073ffffffffffffffffffffffffffffffffffffffff168273ffffffffffffffffffffffffffffffffffffffff161415610a29576040517f08c379a0000000000000000000000000000000000000000000000000000000008152600401610a2090611240565b60405180910390fd5b80600160008573ffffffffffffffffffffffffffffffffffffffff1673ffffffffffffffffffffffffffffffffffffffff16815260200190815260200160002060008473ffffffffffffffffffffffffffffffffffffffff1673ffffffffffffffffffffffffffffffffffffffff168152602001908152602001600020819055508173ffffffffffffffffffffffffffffffffffffffff168373ffffffffffffffffffffffffffffffffffffffff167f8c5be1e5ebec7d5bd14f71427d1e84f3dd0314c0f7b2291e5b200ac8c7c3b92583604051610b079190611340565b60405180910390a3505050565b600073ffffffffffffffffffffffffffffffffffffffff168273ffffffffffffffffffffffffffffffffffffffff161415610b84576040517f08c379a0000000000000000000000000000000000000000000000000000000008152600401610b7b90611320565b60405180910390fd5b610b9060008383610ef5565b8060026000828254610ba29190611392565b92505081905550806000808473ffffffffffffffffffffffffffffffffffffffff1673ffffffffffffffffffffffffffffffffffffffff1681526020019081526020016000206000828254610bf79190611392565b925050819055508173ffffffffffffffffffffffffffffffffffffffff16600073ffffffffffffffffffffffffffffffffffffffff167fddf252ad1be2c89b69c2b068fc378daa952ba7f163c4a11628f55a4df523b3ef83604051610c5c9190611340565b60405180910390a3610c7060008383610efa565b5050565b600073ffffffffffffffffffffffffffffffffffffffff168373ffffffffffffffffffffffffffffffffffffffff161415610ce4576040517f08c379a0000000000000000000000000000000000000000000000000000000008152600401610cdb906112a0565b60405180910390fd5b600073ffffffffffffffffffffffffffffffffffffffff168273ffffffffffffffffffffffffffffffffffffffff161415610d54576040517f08c379a0000000000000000000000000000000000000000000000000000000008152600401610d4b90611220565b60405180910390fd5b610d5f838383610ef5565b60008060008573ffffffffffffffffffffffffffffffffffffffff1673ffffffffffffffffffffffffffffffffffffffff16815260200190815260200160002054905081811015610de5576040517f08c379a0000000000000000000000000000000000000000000000000000000008152600401610ddc90611260565b60405180910390fd5b8181036000808673ffffffffffffffffffffffffffffffffffffffff1673ffffffffffffffffffffffffffffffffffffffff16815260200190815260200160002081905550816000808573ffffffffffffffffffffffffffffffffffffffff1673ffffffffffffffffffffffffffffffffffffffff1681526020019081526020016000206000828254610e789190611392565b925050819055508273ffffffffffffffffffffffffffffffffffffffff168473ffffffffffffffffffffffffffffffffffffffff167fddf252ad1be2c89b69c2b068fc378daa952ba7f163c4a11628f55a4df523b3ef84604051610edc9190611340565b60405180910390a3610eef848484610efa565b50505050565b505050565b505050565b600081359050610f0e816117e6565b92915050565b600081359050610f23816117fd565b92915050565b600060208284031215610f3b57600080fd5b6000610f4984828501610eff565b91505092915050565b60008060408385031215610f6557600080fd5b6000610f7385828601610eff565b9250506020610f8485828601610eff565b9150509250929050565b600080600060608486031215610fa357600080fd5b6000610fb186828701610eff565b9350506020610fc286828701610eff565b9250506040610fd386828701610f14565b9150509250925092565b60008060408385031215610ff057600080fd5b6000610ffe85828601610eff565b925050602061100f85828601610f14565b9150509250929050565b60006020828403121561102b57600080fd5b600061103984828501610f14565b91505092915050565b61104b8161142e565b82525050565b600061105c82611376565b6110668185611381565b9350611076818560208601611471565b61107f81611534565b840191505092915050565b6000611097602383611381565b91506110a282611545565b604082019050919050565b60006110ba602283611381565b91506110c582611594565b604082019050919050565b60006110dd602683611381565b91506110e8826115e3565b604082019050919050565b6000611100602883611381565b915061110b82611632565b604082019050919050565b6000611123602583611381565b915061112e82611681565b604082019050919050565b6000611146602483611381565b9150611151826116d0565b604082019050919050565b6000611169602383611381565b91506111748261171f565b604082019050919050565b600061118c602583611381565b91506111978261176e565b604082019050919050565b60006111af601f83611381565b91506111ba826117bd565b602082019050919050565b6111ce8161145a565b82525050565b6111dd81611464565b82525050565b60006020820190506111f86000830184611042565b92915050565b600060208201905081810360008301526112188184611051565b905092915050565b600060208201905081810360008301526112398161108a565b9050919050565b60006020820190508181036000830152611259816110ad565b9050919050565b60006020820190508181036000830152611279816110d0565b9050919050565b60006020820190508181036000830152611299816110f3565b9050919050565b600060208201905081810360008301526112b981611116565b9050919050565b600060208201905081810360008301526112d981611139565b9050919050565b600060208201905081810360008301526112f98161115c565b9050919050565b600060208201905081810360008301526113198161117f565b9050919050565b60006020820190508181036000830152611339816111a2565b9050919050565b600060208201905061135560008301846111c5565b92915050565b600060208201905061137060008301846111d4565b92915050565b600081519050919050565b600082825260208201905092915050565b600061139d8261145a565b91506113a88361145a565b9250827fffffffffffffffffffffffffffffffffffffffffffffffffffffffffffffffff038211156113dd576113dc6114d6565b5b828201905092915050565b60006113f38261145a565b91506113fe8361145a565b925082821015611411576114106114d6565b5b828203905092915050565b60006114278261143a565b9050919050565b60008115159050919050565b600073ffffffffffffffffffffffffffffffffffffffff82169050919050565b6000819050919050565b600060ff82169050919050565b60005b8381101561148f578082015181840152602081019050611474565b8381111561149e576000848401525b50505050565b600060028204905060018216806114bc57607f821691505b602082108114156114d0576114cf611505565b5b50919050565b7f4e487b7100000000000000000000000000000000000000000000000000000000600052601160045260246000fd5b7f4e487b7100000000000000000000000000000000000000000000000000000000600052602260045260246000fd5b6000601f19601f8301169050919050565b7f45524332303a207472616e7366657220746f20746865207a65726f206164647260008201527f6573730000000000000000000000000000000000000000000000000000000000602082015250565b7f45524332303a20617070726f766520746f20746865207a65726f20616464726560008201527f7373000000000000000000000000000000000000000000000000000000000000602082015250565b7f45524332303a207472616e7366657220616d6f756e742065786365656473206260008201527f616c616e63650000000000000000000000000000000000000000000000000000602082015250565b7f45524332303a207472616e7366657220616d6f756e742065786365656473206160008201527f6c6c6f77616e6365000000000000000000000000000000000000000000000000602082015250565b7f45524332303a207472616e736665722066726f6d20746865207a65726f20616460008201527f6472657373000000000000000000000000000000000000000000000000000000602082015250565b7f45524332303a20617070726f76652066726f6d20746865207a65726f2061646460008201527f7265737300000000000000000000000000000000000000000000000000000000602082015250565b7f596f7520646f6e2274206f776e207468617420616d6f756e74206f662045746860008201527f6572730000000000000000000000000000000000000000000000000000000000602082015250565b7f45524332303a2064656372656173656420616c6c6f77616e63652062656c6f7760008201527f207a65726f000000000000000000000000000000000000000000000000000000602082015250565b7f45524332303a206d696e7420746f20746865207a65726f206164647265737300600082015250565b6117ef8161141c565b81146117fa57600080fd5b50565b6118068161145a565b811461181157600080fd5b5056fea2646970667358221220cc92f64fdb2c3db6f5aafe3e6640aaa877d7a8556b6a3b4deb26e558e9cf923464736f6c63430008040033",
  "immutableReferences": {},
  "source": "// SPDX-License-Identifier: MIT\npragma solidity ^0.8.4;\n\nimport \"@openzeppelin/contracts/token/ERC20/ERC20.sol\";\n\ncontract WrappedEther is ERC20 {\n    uint256 public totalSupplyWether = 0;\n\n    constructor() ERC20(\"WRAPPED ETHER\", \"WETH\") {}\n\n    function mint() public payable {\n        _mint(msg.sender, msg.value);\n        totalSupplyWether += msg.value;\n    }\n\n    function withdraw(uint256 amount) public {\n        require(\n            amount <= balanceOf(msg.sender),\n            'You don\"t own that amount of Ethers'\n        );\n\n        payable(msg.sender).transfer(amount);\n        totalSupplyWether -= amount;\n    }\n}\n",
  "sourcePath": "/Volumes/APPLE HDD/reactprojects/wrapped-ether/contracts/WrappedEther.sol",
  "compiler": {
    "name": "solc",
    "version": "0.8.4+commit.c7e474f2.Emscripten.clang"
  },
  "schemaVersion": "3.4.3",
  "updatedAt": "2021-11-29T09:39:26.182Z",
  "networkType": "ethereum",
  "devdoc": {
    "kind": "dev",
    "methods": {
      "allowance(address,address)": {
        "details": "See {IERC20-allowance}."
      },
      "approve(address,uint256)": {
        "details": "See {IERC20-approve}. Requirements: - `spender` cannot be the zero address."
      },
      "balanceOf(address)": {
        "details": "See {IERC20-balanceOf}."
      },
      "decimals()": {
        "details": "Returns the number of decimals used to get its user representation. For example, if `decimals` equals `2`, a balance of `505` tokens should be displayed to a user as `5.05` (`505 / 10 ** 2`). Tokens usually opt for a value of 18, imitating the relationship between Ether and Wei. This is the value {ERC20} uses, unless this function is overridden; NOTE: This information is only used for _display_ purposes: it in no way affects any of the arithmetic of the contract, including {IERC20-balanceOf} and {IERC20-transfer}."
      },
      "decreaseAllowance(address,uint256)": {
        "details": "Atomically decreases the allowance granted to `spender` by the caller. This is an alternative to {approve} that can be used as a mitigation for problems described in {IERC20-approve}. Emits an {Approval} event indicating the updated allowance. Requirements: - `spender` cannot be the zero address. - `spender` must have allowance for the caller of at least `subtractedValue`."
      },
      "increaseAllowance(address,uint256)": {
        "details": "Atomically increases the allowance granted to `spender` by the caller. This is an alternative to {approve} that can be used as a mitigation for problems described in {IERC20-approve}. Emits an {Approval} event indicating the updated allowance. Requirements: - `spender` cannot be the zero address."
      },
      "name()": {
        "details": "Returns the name of the token."
      },
      "symbol()": {
        "details": "Returns the symbol of the token, usually a shorter version of the name."
      },
      "totalSupply()": {
        "details": "See {IERC20-totalSupply}."
      },
      "transfer(address,uint256)": {
        "details": "See {IERC20-transfer}. Requirements: - `recipient` cannot be the zero address. - the caller must have a balance of at least `amount`."
      },
      "transferFrom(address,address,uint256)": {
        "details": "See {IERC20-transferFrom}. Emits an {Approval} event indicating the updated allowance. This is not required by the EIP. See the note at the beginning of {ERC20}. Requirements: - `sender` and `recipient` cannot be the zero address. - `sender` must have a balance of at least `amount`. - the caller must have allowance for ``sender``'s tokens of at least `amount`."
      }
    },
    "version": 1
  },
  "userdoc": {
    "kind": "user",
    "methods": {},
    "version": 1
  }
}