{
  "contractName": "WrappedEther",
  "abi": [
    {
      "inputs": [],
      "stateMutability": "nonpayable",
      "type": "constructor"
    },
    {
      "anonymous": false,
      "inputs": [
        {
          "indexed": true,
          "internalType": "address",
          "name": "owner",
          "type": "address"
        },
        {
          "indexed": true,
          "internalType": "address",
          "name": "spender",
          "type": "address"
        },
        {
          "indexed": false,
          "internalType": "uint256",
          "name": "value",
          "type": "uint256"
        }
      ],
      "name": "Approval",
      "type": "event"
    },
    {
      "anonymous": false,
      "inputs": [
        {
          "indexed": true,
          "internalType": "address",
          "name": "from",
          "type": "address"
        },
        {
          "indexed": true,
          "internalType": "address",
          "name": "to",
          "type": "address"
        },
        {
          "indexed": false,
          "internalType": "uint256",
          "name": "value",
          "type": "uint256"
        }
      ],
      "name": "Transfer",
      "type": "event"
    },
    {
      "inputs": [
        {
          "internalType": "address",
          "name": "owner",
          "type": "address"
        },
        {
          "internalType": "address",
          "name": "spender",
          "type": "address"
        }
      ],
      "name": "allowance",
      "outputs": [
        {
          "internalType": "uint256",
          "name": "",
          "type": "uint256"
        }
      ],
      "stateMutability": "view",
      "type": "function",
      "constant": true
    },
    {
      "inputs": [
        {
          "internalType": "address",
          "name": "spender",
          "type": "address"
        },
        {
          "internalType": "uint256",
          "name": "amount",
          "type": "uint256"
        }
      ],
      "name": "approve",
      "outputs": [
        {
          "internalType": "bool",
          "name": "",
          "type": "bool"
        }
      ],
      "stateMutability": "nonpayable",
      "type": "function"
    },
    {
      "inputs": [
        {
          "internalType": "address",
          "name": "account",
          "type": "address"
        }
      ],
      "name": "balanceOf",
      "outputs": [
        {
          "internalType": "uint256",
          "name": "",
          "type": "uint256"
        }
      ],
      "stateMutability": "view",
      "type": "function",
      "constant": true
    },
    {
      "inputs": [],
      "name": "decimals",
      "outputs": [
        {
          "internalType": "uint8",
          "name": "",
          "type": "uint8"
        }
      ],
      "stateMutability": "view",
      "type": "function",
      "constant": true
    },
    {
      "inputs": [
        {
          "internalType": "address",
          "name": "spender",
          "type": "address"
        },
        {
          "internalType": "uint256",
          "name": "subtractedValue",
          "type": "uint256"
        }
      ],
      "name": "decreaseAllowance",
      "outputs": [
        {
          "internalType": "bool",
          "name": "",
          "type": "bool"
        }
      ],
      "stateMutability": "nonpayable",
      "type": "function"
    },
    {
      "inputs": [
        {
          "internalType": "address",
          "name": "spender",
          "type": "address"
        },
        {
          "internalType": "uint256",
          "name": "addedValue",
          "type": "uint256"
        }
      ],
      "name": "increaseAllowance",
      "outputs": [
        {
          "internalType": "bool",
          "name": "",
          "type": "bool"
        }
      ],
      "stateMutability": "nonpayable",
      "type": "function"
    },
    {
      "inputs": [],
      "name": "name",
      "outputs": [
        {
          "internalType": "string",
          "name": "",
          "type": "string"
        }
      ],
      "stateMutability": "view",
      "type": "function",
      "constant": true
    },
    {
      "inputs": [],
      "name": "symbol",
      "outputs": [
        {
          "internalType": "string",
          "name": "",
          "type": "string"
        }
      ],
      "stateMutability": "view",
      "type": "function",
      "constant": true
    },
    {
      "inputs": [],
      "name": "totalSupply",
      "outputs": [
        {
          "internalType": "uint256",
          "name": "",
          "type": "uint256"
        }
      ],
      "stateMutability": "view",
      "type": "function",
      "constant": true
    },
    {
      "inputs": [],
      "name": "totalSupplyWether",
      "outputs": [
        {
          "internalType": "uint256",
          "name": "",
          "type": "uint256"
        }
      ],
      "stateMutability": "view",
      "type": "function",
      "constant": true
    },
    {
      "inputs": [
        {
          "internalType": "address",
          "name": "recipient",
          "type": "address"
        },
        {
          "internalType": "uint256",
          "name": "amount",
          "type": "uint256"
        }
      ],
      "name": "transfer",
      "outputs": [
        {
          "internalType": "bool",
          "name": "",
          "type": "bool"
        }
      ],
      "stateMutability": "nonpayable",
      "type": "function"
    },
    {
      "inputs": [
        {
          "internalType": "address",
          "name": "sender",
          "type": "address"
        },
        {
          "internalType": "address",
          "name": "recipient",
          "type": "address"
        },
        {
          "internalType": "uint256",
          "name": "amount",
          "type": "uint256"
        }
      ],
      "name": "transferFrom",
      "outputs": [
        {
          "internalType": "bool",
          "name": "",
          "type": "bool"
        }
      ],
      "stateMutability": "nonpayable",
      "type": "function"
    },
    {
      "inputs": [],
      "name": "mint",
      "outputs": [],
      "stateMutability": "payable",
      "type": "function",
      "payable": true
    },
    {
      "inputs": [
        {
          "internalType": "uint256",
          "name": "amount",
          "type": "uint256"
        }
      ],
      "name": "withdraw",
      "outputs": [],
      "stateMutability": "nonpayable",
      "type": "function"
    }
  ],
  "bytecode": "0x608060405260006005553480156200001657600080fd5b506040518060400160405280600d81526020017f57524150504544204554484552000000000000000000000000000000000000008152506040518060400160405280600481526020017f574554480000000000000000000000000000000000000000000000000000000081525081600390805190602001906200009b929190620000bd565b508060049080519060200190620000b4929190620000bd565b505050620001d2565b828054620000cb906200016d565b90600052602060002090601f016020900481019282620000ef57600085556200013b565b82601f106200010a57805160ff19168380011785556200013b565b828001600101855582156200013b579182015b828111156200013a5782518255916020019190600101906200011d565b5b5090506200014a91906200014e565b5090565b5b80821115620001695760008160009055506001016200014f565b5090565b600060028204905060018216806200018657607f821691505b602082108114156200019d576200019c620001a3565b5b50919050565b7f4e487b7100000000000000000000000000000000000000000000000000000000600052602260045260246000fd5b611b4f80620001e26000396000f3fe6080604052600436106100dd5760003560e01c8063395093511161007f57806395d89b411161005957806395d89b41146102b5578063a457c2d7146102e0578063a9059cbb1461031d578063dd62ed3e1461035a576100dd565b8063395093511461021057806370a082311461024d578063714d7ba41461028a576100dd565b806318160ddd116100bb57806318160ddd1461015457806323b872dd1461017f5780632e1a7d4d146101bc578063313ce567146101e5576100dd565b806306fdde03146100e2578063095ea7b31461010d5780631249c58b1461014a575b600080fd5b3480156100ee57600080fd5b506100f7610397565b6040516101049190611425565b60405180910390f35b34801561011957600080fd5b50610134600480360381019061012f91906111be565b610429565b604051610141919061140a565b60405180910390f35b610152610447565b005b34801561016057600080fd5b5061016961046c565b60405161017691906115a7565b60405180910390f35b34801561018b57600080fd5b506101a660048036038101906101a1919061116f565b610476565b6040516101b3919061140a565b60405180910390f35b3480156101c857600080fd5b506101e360048036038101906101de91906111fa565b61056e565b005b3480156101f157600080fd5b506101fa610626565b60405161020791906115c2565b60405180910390f35b34801561021c57600080fd5b50610237600480360381019061023291906111be565b61062f565b604051610244919061140a565b60405180910390f35b34801561025957600080fd5b50610274600480360381019061026f919061110a565b6106db565b60405161028191906115a7565b60405180910390f35b34801561029657600080fd5b5061029f610723565b6040516102ac91906115a7565b60405180910390f35b3480156102c157600080fd5b506102ca610729565b6040516102d79190611425565b60405180910390f35b3480156102ec57600080fd5b50610307600480360381019061030291906111be565b6107bb565b604051610314919061140a565b60405180910390f35b34801561032957600080fd5b50610344600480360381019061033f91906111be565b6108a6565b604051610351919061140a565b60405180910390f35b34801561036657600080fd5b50610381600480360381019061037c9190611133565b6108c4565b60405161038e91906115a7565b60405180910390f35b6060600380546103a69061170b565b80601f01602080910402602001604051908101604052809291908181526020018280546103d29061170b565b801561041f5780601f106103f45761010080835404028352916020019161041f565b820191906000526020600020905b81548152906001019060200180831161040257829003601f168201915b5050505050905090565b600061043d61043661094b565b8484610953565b6001905092915050565b6104513334610b1e565b346005600082825461046391906115f9565b92505081905550565b6000600254905090565b6000610483848484610c7e565b6000600160008673ffffffffffffffffffffffffffffffffffffffff1673ffffffffffffffffffffffffffffffffffffffff16815260200190815260200160002060006104ce61094b565b73ffffffffffffffffffffffffffffffffffffffff1673ffffffffffffffffffffffffffffffffffffffff1681526020019081526020016000205490508281101561054e576040517f08c379a0000000000000000000000000000000000000000000000000000000008152600401610545906114c7565b60405180910390fd5b6105628561055a61094b565b858403610953565b60019150509392505050565b610577336106db565b8111156105b9576040517f08c379a00000000000000000000000000000000000000000000000000000000081526004016105b090611547565b60405180910390fd5b6105c33382610eff565b3373ffffffffffffffffffffffffffffffffffffffff166108fc829081150290604051600060405180830381858888f19350505050158015610609573d6000803e3d6000fd5b50806005600082825461061c919061164f565b9250508190555050565b60006012905090565b60006106d161063c61094b565b84846001600061064a61094b565b73ffffffffffffffffffffffffffffffffffffffff1673ffffffffffffffffffffffffffffffffffffffff16815260200190815260200160002060008873ffffffffffffffffffffffffffffffffffffffff1673ffffffffffffffffffffffffffffffffffffffff168152602001908152602001600020546106cc91906115f9565b610953565b6001905092915050565b60008060008373ffffffffffffffffffffffffffffffffffffffff1673ffffffffffffffffffffffffffffffffffffffff168152602001908152602001600020549050919050565b60055481565b6060600480546107389061170b565b80601f01602080910402602001604051908101604052809291908181526020018280546107649061170b565b80156107b15780601f10610786576101008083540402835291602001916107b1565b820191906000526020600020905b81548152906001019060200180831161079457829003601f168201915b5050505050905090565b600080600160006107ca61094b565b73ffffffffffffffffffffffffffffffffffffffff1673ffffffffffffffffffffffffffffffffffffffff16815260200190815260200160002060008573ffffffffffffffffffffffffffffffffffffffff1673ffffffffffffffffffffffffffffffffffffffff16815260200190815260200160002054905082811015610887576040517f08c379a000000000000000000000000000000000000000000000000000000000815260040161087e90611567565b60405180910390fd5b61089b61089261094b565b85858403610953565b600191505092915050565b60006108ba6108b361094b565b8484610c7e565b6001905092915050565b6000600160008473ffffffffffffffffffffffffffffffffffffffff1673ffffffffffffffffffffffffffffffffffffffff16815260200190815260200160002060008373ffffffffffffffffffffffffffffffffffffffff1673ffffffffffffffffffffffffffffffffffffffff16815260200190815260200160002054905092915050565b600033905090565b600073ffffffffffffffffffffffffffffffffffffffff168373ffffffffffffffffffffffffffffffffffffffff1614156109c3576040517f08c379a00000000000000000000000000000000000000000000000000000000081526004016109ba90611527565b60405180910390fd5b600073ffffffffffffffffffffffffffffffffffffffff168273ffffffffffffffffffffffffffffffffffffffff161415610a33576040517f08c379a0000000000000000000000000000000000000000000000000000000008152600401610a2a90611487565b60405180910390fd5b80600160008573ffffffffffffffffffffffffffffffffffffffff1673ffffffffffffffffffffffffffffffffffffffff16815260200190815260200160002060008473ffffffffffffffffffffffffffffffffffffffff1673ffffffffffffffffffffffffffffffffffffffff168152602001908152602001600020819055508173ffffffffffffffffffffffffffffffffffffffff168373ffffffffffffffffffffffffffffffffffffffff167f8c5be1e5ebec7d5bd14f71427d1e84f3dd0314c0f7b2291e5b200ac8c7c3b92583604051610b1191906115a7565b60405180910390a3505050565b600073ffffffffffffffffffffffffffffffffffffffff168273ffffffffffffffffffffffffffffffffffffffff161415610b8e576040517f08c379a0000000000000000000000000000000000000000000000000000000008152600401610b8590611587565b60405180910390fd5b610b9a600083836110d6565b8060026000828254610bac91906115f9565b92505081905550806000808473ffffffffffffffffffffffffffffffffffffffff1673ffffffffffffffffffffffffffffffffffffffff1681526020019081526020016000206000828254610c0191906115f9565b925050819055508173ffffffffffffffffffffffffffffffffffffffff16600073ffffffffffffffffffffffffffffffffffffffff167fddf252ad1be2c89b69c2b068fc378daa952ba7f163c4a11628f55a4df523b3ef83604051610c6691906115a7565b60405180910390a3610c7a600083836110db565b5050565b600073ffffffffffffffffffffffffffffffffffffffff168373ffffffffffffffffffffffffffffffffffffffff161415610cee576040517f08c379a0000000000000000000000000000000000000000000000000000000008152600401610ce590611507565b60405180910390fd5b600073ffffffffffffffffffffffffffffffffffffffff168273ffffffffffffffffffffffffffffffffffffffff161415610d5e576040517f08c379a0000000000000000000000000000000000000000000000000000000008152600401610d5590611447565b60405180910390fd5b610d698383836110d6565b60008060008573ffffffffffffffffffffffffffffffffffffffff1673ffffffffffffffffffffffffffffffffffffffff16815260200190815260200160002054905081811015610def576040517f08c379a0000000000000000000000000000000000000000000000000000000008152600401610de6906114a7565b60405180910390fd5b8181036000808673ffffffffffffffffffffffffffffffffffffffff1673ffffffffffffffffffffffffffffffffffffffff16815260200190815260200160002081905550816000808573ffffffffffffffffffffffffffffffffffffffff1673ffffffffffffffffffffffffffffffffffffffff1681526020019081526020016000206000828254610e8291906115f9565b925050819055508273ffffffffffffffffffffffffffffffffffffffff168473ffffffffffffffffffffffffffffffffffffffff167fddf252ad1be2c89b69c2b068fc378daa952ba7f163c4a11628f55a4df523b3ef84604051610ee691906115a7565b60405180910390a3610ef98484846110db565b50505050565b600073ffffffffffffffffffffffffffffffffffffffff168273ffffffffffffffffffffffffffffffffffffffff161415610f6f576040517f08c379a0000000000000000000000000000000000000000000000000000000008152600401610f66906114e7565b60405180910390fd5b610f7b826000836110d6565b60008060008473ffffffffffffffffffffffffffffffffffffffff1673ffffffffffffffffffffffffffffffffffffffff16815260200190815260200160002054905081811015611001576040517f08c379a0000000000000000000000000000000000000000000000000000000008152600401610ff890611467565b60405180910390fd5b8181036000808573ffffffffffffffffffffffffffffffffffffffff1673ffffffffffffffffffffffffffffffffffffffff168152602001908152602001600020819055508160026000828254611058919061164f565b92505081905550600073ffffffffffffffffffffffffffffffffffffffff168373ffffffffffffffffffffffffffffffffffffffff167fddf252ad1be2c89b69c2b068fc378daa952ba7f163c4a11628f55a4df523b3ef846040516110bd91906115a7565b60405180910390a36110d1836000846110db565b505050565b505050565b505050565b6000813590506110ef81611aeb565b92915050565b60008135905061110481611b02565b92915050565b60006020828403121561111c57600080fd5b600061112a848285016110e0565b91505092915050565b6000806040838503121561114657600080fd5b6000611154858286016110e0565b9250506020611165858286016110e0565b9150509250929050565b60008060006060848603121561118457600080fd5b6000611192868287016110e0565b93505060206111a3868287016110e0565b92505060406111b4868287016110f5565b9150509250925092565b600080604083850312156111d157600080fd5b60006111df858286016110e0565b92505060206111f0858286016110f5565b9150509250929050565b60006020828403121561120c57600080fd5b600061121a848285016110f5565b91505092915050565b61122c81611695565b82525050565b600061123d826115dd565b61124781856115e8565b93506112578185602086016116d8565b6112608161179b565b840191505092915050565b60006112786023836115e8565b9150611283826117ac565b604082019050919050565b600061129b6022836115e8565b91506112a6826117fb565b604082019050919050565b60006112be6022836115e8565b91506112c98261184a565b604082019050919050565b60006112e16026836115e8565b91506112ec82611899565b604082019050919050565b60006113046028836115e8565b915061130f826118e8565b604082019050919050565b60006113276021836115e8565b915061133282611937565b604082019050919050565b600061134a6025836115e8565b915061135582611986565b604082019050919050565b600061136d6024836115e8565b9150611378826119d5565b604082019050919050565b60006113906023836115e8565b915061139b82611a24565b604082019050919050565b60006113b36025836115e8565b91506113be82611a73565b604082019050919050565b60006113d6601f836115e8565b91506113e182611ac2565b602082019050919050565b6113f5816116c1565b82525050565b611404816116cb565b82525050565b600060208201905061141f6000830184611223565b92915050565b6000602082019050818103600083015261143f8184611232565b905092915050565b600060208201905081810360008301526114608161126b565b9050919050565b600060208201905081810360008301526114808161128e565b9050919050565b600060208201905081810360008301526114a0816112b1565b9050919050565b600060208201905081810360008301526114c0816112d4565b9050919050565b600060208201905081810360008301526114e0816112f7565b9050919050565b600060208201905081810360008301526115008161131a565b9050919050565b600060208201905081810360008301526115208161133d565b9050919050565b6000602082019050818103600083015261154081611360565b9050919050565b6000602082019050818103600083015261156081611383565b9050919050565b60006020820190508181036000830152611580816113a6565b9050919050565b600060208201905081810360008301526115a0816113c9565b9050919050565b60006020820190506115bc60008301846113ec565b92915050565b60006020820190506115d760008301846113fb565b92915050565b600081519050919050565b600082825260208201905092915050565b6000611604826116c1565b915061160f836116c1565b9250827fffffffffffffffffffffffffffffffffffffffffffffffffffffffffffffffff038211156116445761164361173d565b5b828201905092915050565b600061165a826116c1565b9150611665836116c1565b9250828210156116785761167761173d565b5b828203905092915050565b600061168e826116a1565b9050919050565b60008115159050919050565b600073ffffffffffffffffffffffffffffffffffffffff82169050919050565b6000819050919050565b600060ff82169050919050565b60005b838110156116f65780820151818401526020810190506116db565b83811115611705576000848401525b50505050565b6000600282049050600182168061172357607f821691505b602082108114156117375761173661176c565b5b50919050565b7f4e487b7100000000000000000000000000000000000000000000000000000000600052601160045260246000fd5b7f4e487b7100000000000000000000000000000000000000000000000000000000600052602260045260246000fd5b6000601f19601f8301169050919050565b7f45524332303a207472616e7366657220746f20746865207a65726f206164647260008201527f6573730000000000000000000000000000000000000000000000000000000000602082015250565b7f45524332303a206275726e20616d6f756e7420657863656564732062616c616e60008201527f6365000000000000000000000000000000000000000000000000000000000000602082015250565b7f45524332303a20617070726f766520746f20746865207a65726f20616464726560008201527f7373000000000000000000000000000000000000000000000000000000000000602082015250565b7f45524332303a207472616e7366657220616d6f756e742065786365656473206260008201527f616c616e63650000000000000000000000000000000000000000000000000000602082015250565b7f45524332303a207472616e7366657220616d6f756e742065786365656473206160008201527f6c6c6f77616e6365000000000000000000000000000000000000000000000000602082015250565b7f45524332303a206275726e2066726f6d20746865207a65726f2061646472657360008201527f7300000000000000000000000000000000000000000000000000000000000000602082015250565b7f45524332303a207472616e736665722066726f6d20746865207a65726f20616460008201527f6472657373000000000000000000000000000000000000000000000000000000602082015250565b7f45524332303a20617070726f76652066726f6d20746865207a65726f2061646460008201527f7265737300000000000000000000000000000000000000000000000000000000602082015250565b7f596f7520646f6e2274206f776e207468617420616d6f756e74206f662045746860008201527f6572730000000000000000000000000000000000000000000000000000000000602082015250565b7f45524332303a2064656372656173656420616c6c6f77616e63652062656c6f7760008201527f207a65726f000000000000000000000000000000000000000000000000000000602082015250565b7f45524332303a206d696e7420746f20746865207a65726f206164647265737300600082015250565b611af481611683565b8114611aff57600080fd5b50565b611b0b816116c1565b8114611b1657600080fd5b5056fea26469706673582212203a87f78d090f2d83aabbc14f105f7ae778ca0dd65c9dfc97fd98299b41311eee64736f6c63430008040033",
  "immutableReferences": {},
  "source": "// SPDX-License-Identifier: MIT\npragma solidity ^0.8.4;\n\nimport \"@openzeppelin/contracts/token/ERC20/ERC20.sol\";\n\ncontract WrappedEther is ERC20 {\n    uint256 public totalSupplyWether = 0;\n\n    constructor() ERC20(\"WRAPPED ETHER\", \"WETH\") {}\n\n    function mint() public payable {\n        _mint(msg.sender, msg.value);\n        totalSupplyWether += msg.value;\n    }\n\n    function withdraw(uint256 amount) public {\n        require(\n            amount <= balanceOf(msg.sender),\n            'You don\"t own that amount of Ethers'\n        );\n\n        _burn(msg.sender, amount);\n        payable(msg.sender).transfer(amount);\n        totalSupplyWether -= amount;\n    }\n}\n",
  "sourcePath": "/Volumes/APPLE HDD/reactprojects/wrapped-ether/contracts/WrappedEther.sol",
  "compiler": {
    "name": "solc",
    "version": "0.8.4+commit.c7e474f2.Emscripten.clang"
  },
  "schemaVersion": "3.4.3",
  "updatedAt": "2021-11-29T10:18:34.132Z",
  "networkType": "ethereum",
  "devdoc": {
    "kind": "dev",
    "methods": {
      "allowance(address,address)": {
        "details": "See {IERC20-allowance}."
      },
      "approve(address,uint256)": {
        "details": "See {IERC20-approve}. Requirements: - `spender` cannot be the zero address."
      },
      "balanceOf(address)": {
        "details": "See {IERC20-balanceOf}."
      },
      "decimals()": {
        "details": "Returns the number of decimals used to get its user representation. For example, if `decimals` equals `2`, a balance of `505` tokens should be displayed to a user as `5.05` (`505 / 10 ** 2`). Tokens usually opt for a value of 18, imitating the relationship between Ether and Wei. This is the value {ERC20} uses, unless this function is overridden; NOTE: This information is only used for _display_ purposes: it in no way affects any of the arithmetic of the contract, including {IERC20-balanceOf} and {IERC20-transfer}."
      },
      "decreaseAllowance(address,uint256)": {
        "details": "Atomically decreases the allowance granted to `spender` by the caller. This is an alternative to {approve} that can be used as a mitigation for problems described in {IERC20-approve}. Emits an {Approval} event indicating the updated allowance. Requirements: - `spender` cannot be the zero address. - `spender` must have allowance for the caller of at least `subtractedValue`."
      },
      "increaseAllowance(address,uint256)": {
        "details": "Atomically increases the allowance granted to `spender` by the caller. This is an alternative to {approve} that can be used as a mitigation for problems described in {IERC20-approve}. Emits an {Approval} event indicating the updated allowance. Requirements: - `spender` cannot be the zero address."
      },
      "name()": {
        "details": "Returns the name of the token."
      },
      "symbol()": {
        "details": "Returns the symbol of the token, usually a shorter version of the name."
      },
      "totalSupply()": {
        "details": "See {IERC20-totalSupply}."
      },
      "transfer(address,uint256)": {
        "details": "See {IERC20-transfer}. Requirements: - `recipient` cannot be the zero address. - the caller must have a balance of at least `amount`."
      },
      "transferFrom(address,address,uint256)": {
        "details": "See {IERC20-transferFrom}. Emits an {Approval} event indicating the updated allowance. This is not required by the EIP. See the note at the beginning of {ERC20}. Requirements: - `sender` and `recipient` cannot be the zero address. - `sender` must have a balance of at least `amount`. - the caller must have allowance for ``sender``'s tokens of at least `amount`."
      }
    },
    "version": 1
  },
  "userdoc": {
    "kind": "user",
    "methods": {},
    "version": 1
  }
}